S01400006C65645F626C696E6B696E672E737265632E
S11300000C942A000C9434000C9434000C943400A6
S11300100C9434000C9434000C9434000C9434008C
S11300200C9434000C9434000C9434000C9434007C
S11300300C9434000C9434000C9434000C9434006C
S11300400C9434000C9434000C9434000C9434005C
S11300500C94340011241FBECFE5D4E0DEBFCDBF25
S11300600E9436000C9451000C94000080E187BB80
S113007088BB2FEF3CE241E391E021503040404007
S11300809040D9F700C0000018BA2FEF3CE241E3DA
S113009091E02150304040409040D9F700C000002A
S10900A0E7CFF894FFCF46
S9030000FC
